:100000000C9483000C94B4000C94B4000C94B400D1
:100010000C94B4000C94B4000C94B4000C94B40090
:100020000C94B4000C94B4000C94B4000C94B40080
:100030000C94B4000C94B4000C94B4000C94B40070
:100040000C94B4000C94B4000C94B4000C94B40060
:100050000C94B4000C94B4000C94B4000C940207FB
:100060000C94B4000C94B4000C94B4000C94B40040
:100070000C94B4000C94B4000C94B4000C94B40030
:100080000C94B4000C94B4000C94B4000C94B40020
:100090000C94B4000C94B4000C94B4000C94B40010
:1000A0000C94B4000C94B4000C94B4000C94B40000
:1000B0000C94B4000C94B4000C94B4000C94B400F0
:1000C0000C94B4000C94B4000C94B4000C94B400E0
:1000D0000C94B4000C94B4000C94B4000C94B400D0
:1000E0000C94B4000C941F030C9423060C9422046B
:1000F0000C94DD000C94E0000C94B6000C94D70333
:100100000C94BA00230611241FBECFEFD1E2DEBF4C
:10011000CDBF00E00CBF12E0A0E0B2E0EAE7F1E101
:1001200000E00BBF02C007900D92A231B107D9F7D2
:1001300023E0A2E1B2E001C01D92A330B207E1F7D3
:1001400011E0C6E0D1E000E006C022970109FE01FF
:100150000BBF0E94A808C430D10780E00807A9F7A8
:100160000E9410080C94BB080C940000FC018585CB
:1001700096850895CF93DF9300D000D0CDB7DEB73A
:10018000AB011C821D821E82DC01ED91FC9101906D
:10019000F081E02D19821A821B829E012F5F3F4F52
:1001A000BE016C5F7F4F199526960FB6F894DEBF9F
:1001B0000FBECDBFDF91CF91089580E991E0089502
:1001C0006D9A089568EB7BE080E090E00E947B07E9
:1001D0008091250281114DC085E292E00E940308C2
:1001E000892B09F446C010921702109216028FEF65
:1001F00080931A0280931B0280931C0280931D023D
:1002000080931E0280931F0281E08093200210924F
:10021000220210922102109219021092180280916B
:10022000EB029091EC02892B31F484E192E09093FF
:10023000EC028093EB02E091E902F091EA02309740
:1002400021F084E192E09583848384E192E09093AD
:10025000EA028093E902109224021092230284E0C1
:1002600092E0909315028093140285E292E00E943E
:100270000C0820E030E04BE350E06DE272E084E1F6
:1002800092E00E94E8058DE78093ED020895409189
:1002900013024F5F4093130221E06BE370E08DE2A5
:1002A00092E00E943A066091ED028DEE92E00E948B
:1002B000100568E070E080E090E00C947B078F927E
:1002C0009F92AF92BF92CF92DF92EF92FF920F93E5
:1002D0001F93CF93DF93EC01E881F9819EB1906287
:1002E0008EB18F7D8EB93A852F81D32ED21ADF82BF
:1002F000AF84AA81BB812D859C848E84EE80F88496
:1003000079851B850990D881C02D0981002331F0A2
:10031000402F0D2D400F08F44FEF01C040E0042F97
:10032000029F012D1124C0E04C2F5C2F6C2F002C5C
:10033000EA01CC2E4C2D5D2F9EB900C007FF8EB96F
:1003400060814427889400C000C0002C8EB96111E0
:100350006E0D00C0002C9EB900C006FF8EB908F4D7
:100360006FEF889400C000C000C08EB990FC460FAB
:1003700000C0002C9EB900C005FF8EB94795889437
:1003800091FC460F00C000C0002C8EB947958894A0
:1003900000C0002C9EB900C004FF8EB992FC460F2D
:1003A0004795889400C000C0002C8EB993FC460F7E
:1003B00000C0002C9EB900C003FF8EB947958894F9
:1003C00094FC460F00C000C0002C8EB9479588945D
:1003D00000C0002C9EB900C002FF8EB995FC460FEC
:1003E0004795889400C000C0002C8EB996FC460F3B
:1003F00000C0002C9EB900C001FF8EB947958894BB
:1004000097FC460F00C000C0002C8EB94795889419
:1004100000C0002C9EB900C000FF8EB9E194E70E29
:1004200000C000C000C0002C8EB9042F00C000C066
:100430009EB900C007FF8EB962814427889400C02E
:1004400000C0002C8EB961116F0D00C0002C9EB948
:1004500000C006FF8EB908F46FEF889400C000C09A
:1004600000C08EB980FC460F00C0002C9EB900C0B1
:1004700005FF8EB94795889481FC460F00C000C0E7
:10048000002C8EB94795889400C0002C9EB900C0FE
:1004900004FF8EB982FC460F4795889400C000C0C7
:1004A000002C8EB983FC460F00C0002C9EB900C002
:1004B00003FF8EB94795889484FC460F00C000C0A6
:1004C000002C8EB94795889400C0002C9EB900C0BE
:1004D00002FF8EB985FC460F4795889400C000C086
:1004E000002C8EB986FC460F00C0002C9EB900C0BF
:1004F00001FF8EB94795889487FC460F00C000C065
:10050000002C8EB94795889400C0002C9EB900C07D
:1005100000FF8EB9EA0DF11D8894042F00C000C0C1
:10052000002C8EB9F194F10E00C0002C9EB900C0D1
:1005300007FF8EB961814427889400C000C0002C59
:100540008EB961116D0D00C0002C9EB900C006FF70
:100550008EB908F46FEF889400C000C000C08EB957
:1005600020FD460F00C0002C9EB900C005FF8EB9CB
:100570004795889421FD460F00C000C0002C8EB91D
:100580004795889400C0002C9EB900C004FF8EB926
:1005900022FD460F4795889400C000C0002C8EB9FC
:1005A00023FD460F00C0002C9EB900C003FF8EB98A
:1005B0004795889424FD460F00C000C0002C8EB9DA
:1005C0004795889400C0002C9EB900C002FF8EB9E8
:1005D00025FD460F4795889400C000C0002C8EB9B9
:1005E00026FD460F00C0002C9EB900C001FF8EB949
:1005F0004795889427FD460F00C000C0002C8EB997
:100600004795889400C0002C9EB900C000FF8EB9A9
:10061000D194D30E042F00C000C000C08EB9119732
:1006200009F08ACEDF91CF911F910F91FF90EF904B
:10063000DF90CF90BF90AF909F908F9008950F93D1
:100640001F93CF93DF93EC018B010E9458072F85F6
:100650003889621B730B6A307105B8F3F894C801CE
:100660000E945F01F8014281538120EE31E0DA01FE
:100670000E949608E4E09695879577956795EA95A8
:10068000D1F720E030E0EAE94E9F212D5E9F200D5A
:10069000311D1124620F731F811D911D693EF3E00E
:1006A0007F0781059105A8F1DC01CB01885E9340AD
:1006B000A109B10922E0B695A795979587952A9546
:1006C000D1F740E050E027E0829F412D929F400DFE
:1006D000511D11242091DE0230E0280F391F240F14
:1006E000351F8091FB029091FC02A091FD02B09118
:1006F000FE02432F5527840F951FA11DB11D809326
:10070000FB029093FC02A093FD02B093FE022093A3
:10071000DE0278940E945807788B6F87DF91CF9123
:100720001F910F910895FC01118A108A0895FF927C
:100730000F931F93CF93DF93EC01809112028F5F91
:10074000982F97709093120280FD02C080E001C044
:1007500080E891FD8064947009F08062F0E1FF2EE2
:10076000F80E20E030E000E011E0FE01E20FF31FA0
:100770006485662331F070E0C8010E9441086F5F14
:1007800001C060E061874F2D469F412D11244683B3
:10079000662311F0615061872F5F3F4F2330310591
:1007A00021F7DF91CF911F910F91FF900895EF9264
:1007B000FF920F931F93CF93DF93CDB7DEB762976E
:1007C0000FB6F894DEBF0FBECDBF8C017A01F901E0
:1007D000DC011C968C917A8369835C834B835E83F6
:1007E0004D8390819D8791819E8792819F878130E3
:1007F00029F4CE0101960E94970306C01C861B8631
:100800001A86198618861F82188AB701CE010196AA
:100810000E949303D801ED91FC910484F585E02DAD
:10082000BE016F5F7F4FC801199562960FB6F894AD
:10083000DEBF0FBECDBFDF91CF911F910F91FF9013
:10084000EF900895EF92FF920F931F93CF93DF9352
:10085000CDB7DEB762970FB6F894DEBF0FBECDBF3F
:100860008C017A01F901DC011C968C917A836983F1
:100870005C834B835E834D8390819D8791819E87AE
:1008800092819F87813029F4CE0101960E949703BF
:1008900006C01C861B861A86198618861F8283E06E
:1008A000888BB701CE0101960E949303D801ED9188
:1008B000FC910484F585E02DBE016F5F7F4FC80178
:1008C000199562960FB6F894DEBF0FBECDBFDF91CB
:1008D000CF911F910F91FF90EF9008958F929F926B
:1008E000AF92BF92EF92FF920F931F93CF93DF933C
:1008F000EC01188219821A824423B9F1E0E0F0E099
:100900008B010A5F1F4F7B0189E0E80EF11C842EEA
:10091000912CA12CB12CD801AE0FBF1F2C91D70167
:10092000AE0FBF1F6C912223E1F06623D1F030E0BF
:1009300040E050E02F5F3F4F4F4F5F4F70E080E04F
:1009400090E06F5F7F4F8F4F9F4F0E941D089B016C
:10095000AC01C501B4010E941D08DE01AE0FBF1F2E
:100960008C933196E330F105B1F6CE01DF91CF9152
:100970001F910F91FF90EF90BF90AF909F908F903D
:100980000895CF92DF92EF92FF92CF93DF93EC0125
:100990008091E3029091E4029C012F5F3F4F3093DE
:1009A000E4022093E302861797079CF10E944C070C
:1009B0009B01AC01E091E302F091E40288EE93E048
:1009C000E89FB001E99F700DF89F700D11248827F2
:1009D00077FD8095982FC090DF02D090E002E090E4
:1009E000E102F090E2022C193D094E095F090E94D4
:1009F00055083A8329831092E4021092E3020E9480
:100A00004C076093DF027093E0028093E1029093C1
:100A1000E202DF91CF91FF90EF90DF90CF900895A9
:100A20008F929F92AF92BF92EF92FF920F931F937C
:100A3000CF93DF9300D0CDB7DEB78C01F62EF8014F
:100A400083819481A581B681892B8A2B8B2BD1F050
:100A50000E9458078090E5029090E602A090E7027D
:100A6000B090E802681979098A099B09D8011396A0
:100A70008D909D90AD90BC901697681579058A056C
:100A80009B05E8F20E9458076093E5027093E60226
:100A90008093E7029093E802D8011B96ED91FC91B8
:100AA0001C97309751F0D80117964D915D916D913B
:100AB0007C911A978F2D1995F82EA090EB02B0908B
:100AC000EC02A114B10451F1F501E484D8011196AE
:100AD0008D919C9112978436910508F41486D50166
:100AE000ED91FC91828093804F2DB501CE0101964E
:100AF0000E946E04F50145855685628173819E01D1
:100B00002F5F3F4FC501F4011995D5011C96EC925A
:100B10001C971496AD90BC901597D3CF69E170E007
:100B2000C8010E94C1040F900F900F90DF91CF91E8
:100B30001F910F91FF90EF90BF90AF909F908F907B
:100B40000895CF92DF92EF92FF920F931F93CF936E
:100B5000DF93EC014423F1F06115710581F19B01F4
:100B600040E050E060E472E48FE090E00E9477089B
:100B7000CB80DC80ED80FE8089019A010C151D057B
:100B80002E053F0510F4970186010B831C832D83EE
:100B90003E8315C06115710571F09B0140E050E086
:100BA00060E472E48FE090E00E9477082B833C833E
:100BB0004D835E8304C01B821C821D821E82DF91D6
:100BC000CF911F910F91FF90EF90DF90CF900895FC
:100BD000CF92DF92EF92FF920F931F93CF93DF9309
:100BE000EC016B018A017901121613061CF07A01DF
:100BF00000E010E0E881F9810480F581E02DCE016C
:100C00001995C801880F991F800F911F8C0D9D1D8C
:100C10009B838A83FE86ED86E881F9810284F385D1
:100C2000E02DCE01199541E0BC018DEE92E00E94CD
:100C3000A105CE01DF91CF911F910F91FF90EF9011
:100C4000DF90CF9008958FEF8093ED021092EF0226
:100C50001092EE021092F9021092F8028FEF9FEFBD
:100C6000DC018093F4029093F502A093F602B09316
:100C7000F7020895CF92DF92EF92FF920F931F93A6
:100C8000CF93DF9300D01F92CDB7DEB76B014983BE
:100C90003FEF3B8330EF3A837C0100E010E00C151E
:100CA0001D0584F4B701CE0101962C830E946F06C6
:100CB00089812C81820F89830F5F1F4F83E0E80EAB
:100CC000F11CEDCF0F900F900F900F90DF91CF910F
:100CD0001F910F91FF90EF90DF90CF900895FC014E
:100CE000DB01408161817281242F2F71220F220F3D
:100CF000220F522F35E5539F512D1124352F942F5C
:100D00009074842F807247FD1DC091110AC081111B
:100D100003C03095452F0FC045E5450F20E03BEA65
:100D20002BC081110AC03AEA239F212D11243BEAEE
:100D3000321B4BEA450F20E01FC080E0452F409555
:100D4000252F0BC091110EC0811109C03AEA239FD3
:100D5000212D11244BEA421B2B5A30E00DC0252FC8
:100D6000209509C0811103C03B5A2BEA03C03555B9
:100D700080E025E5251B40E06F3FF1F06623C9F0D8
:100D8000332319F0369F312D3F5F442319F0469FDE
:100D9000412D4F5F222319F0269F212D2F5F112413
:100DA000562F5095559F512D1124350F450F250F66
:100DB00003C02FEF4FEF3FEF7F3FE9F050E0772385
:100DC00021F0779F512D09F05F5F552389F0332380
:100DD00019F0359F312D3F5F442319F0459F412D78
:100DE0004F5F222319F0259F212D2F5F112403C06F
:100DF00020E040E030E03C9311964C93119712961E
:100E00002C9308951F920F920FB60F9211242F93D7
:100E10003F938F939F93AF93BF938091FB029091E9
:100E2000FC02A091FD02B091FE023091FA0223E093
:100E3000230F2D3720F40196A11DB11D05C026E812
:100E4000230F0296A11DB11D2093FA028093FB028D
:100E50009093FC02A093FD02B093FE028091FF02EA
:100E600090910003A0910103B09102030196A11D8E
:100E7000B11D8093FF0290930003A0930103B093F0
:100E80000203BF91AF919F918F913F912F910F904E
:100E90000FBE0F901F9018952FB7F8946091FB022A
:100EA0007091FC028091FD029091FE022FBF089587
:100EB0003FB7F8948091FF0290910003A091010345
:100EC000B091020326B5A89B05C02F3F19F00196EB
:100ED000A11DB11D3FBF6627782F892F9A2F620F62
:100EE000711D811D911D42E0660F771F881F991F9C
:100EF0004A95D1F70895CF92DF92EF92FF92CF9368
:100F0000DF936B017C010E945807EB01C114D104EF
:100F1000E104F10479F00E9458076C1B7D0B683ED8
:100F20007340A0F381E0C81AD108E108F108C85164
:100F3000DC4FECCFDF91CF91FF90EF90DF90CF901F
:100F40000895789484B5826084BD84B5816084BD41
:100F500085B5826085BD85B5816085BDEEE6F0E032
:100F6000808181608083E1E8F0E01082808182608E
:100F70008083808181608083E0E8F0E0808181600F
:100F80008083E1EBF0E0808184608083E0EBF0E03F
:100F9000808181608083E1E9F0E0808182608083EC
:100FA000808181608083E0E9F0E0808181608083DE
:100FB000E1EAF0E0808182608083808181608083CB
:100FC000E0EAF0E0808181608083E1E2F1E080810D
:100FD00082608083808181608083E0E2F1E08081B3
:100FE00081608083EAE7F0E0808184608083808193
:100FF000826080838081816080838081806880833B
:101000001092C1000895FC0181E090E0208122232C
:1010100011F080E090E0089521E0FC012083089524
:101020000E94A1070E94E200C0E0D0E00E944701B8
:101030002097E1F30E940000F9CFDB018F939F938B
:101040000E949D08BF91AF91A29F800D911DA39F0B
:10105000900DB29F900D11240895AA1BBB1B51E166
:1010600007C0AA1FBB1FA617B70710F0A61BB70B18
:10107000881F991F5A95A9F780959095BC01CD01BD
:10108000089597FB072E16F4009407D077FD09D03A
:101090000E942D0807FC05D03EF4909581959F4F46
:1010A0000895709561957F4F0895A1E21A2EAA1BAD
:1010B000BB1BFD010DC0AA1FBB1FEE1FFF1FA21708
:1010C000B307E407F50720F0A21BB30BE40BF50B05
:1010D000661F771F881F991F1A9469F7609570958E
:1010E000809590959B01AC01BD01CF010895052E1F
:1010F00097FB1EF400940E948E0857FD07D00E94B3
:10110000550807FC03D04EF40C948E08509540957A
:10111000309521953F4F4F4F5F4F089590958095A3
:10112000709561957F4F8F4F9F4F08950E94AC0837
:10113000B7FF0895821B930B08950E94AC08A59FEA
:10114000900DB49F900DA49F800D911D11240895C2
:101150000790F691E02D1994A29FB001B39FC001B2
:10116000A39F700D811D1124911DB29F700D811DD3
:0A1170001124911D0895F894FFCF9B
:10117A0000000000D7032204E000BA00B600DD0038
:02118A001F0341
:00000001FF
