:10000000FAC0000026C1000024C1000022C1000087
:1000100020C100001EC100001CC100001AC1000068
:1000200018C1000016C1000014C1000012C1000078
:1000300010C100000EC100000CC100000AC1000088
:1000400008C1000006C1000004C1000002C1000098
:1000500000C10000FEC00000FCC0000001C600009E
:10006000F8C00000F6C00000F4C00000F2C00000BC
:10007000F0C00000EEC00000ECC00000EAC00000CC
:10008000E8C00000E6C00000E4C00000E2C00000DC
:10009000E0C00000DEC00000DCC00000DAC00000EC
:1000A000D8C00000D6C00000D4C00000D2C00000FC
:1000B000D0C00000CEC00000CCC00000CAC000000C
:1000C000C8C00000C6C00000C4C00000C2C000001C
:1000D000C0C00000BEC00000BCC00000BAC000002C
:1000E000B8C000003C073F072E07320738077607E5
:1000F000430747074D07510755075B075F0763072E
:10010000760769076D07710700000A0B02090C0DDD
:100110000E080703040100000000000000000000BA
:1001200000000000000000000000000000000000CF
:10013000000000001211100000000000000000008C
:1001400000000000000000000000000000000102AC
:1001500010202008081020401020408002010201D9
:100160000804020101020408102040808040201091
:1001700008040201800402018040201008040201EA
:100180000804020101020408102040800102040852
:10019000102040800505050507050808080802022B
:1001A00002020A0A08080404040401010101010111
:1001B00001010303030303030303040707070C0CF4
:1001C0000C0C0C0C0C0C02020202060606060606BB
:1001D00006060B0B0B0B0B0B0B0B00002000230078
:1001E000260029002C002F0032000001000003012E
:1001F000060109015A0511241FBECFEFD1E2DEBF6F
:10020000CDBF00E00CBF12E0A0E0B2E0ECE5F1E110
:1002100000E00BBF02C007900D92AA31B107D9F7D9
:1002200023E0AAE1B2E001C01D92AB32B207E1F7D0
:1002300011E0C6EFD1E000E005C022970109FE0100
:100240000BBFF9D6C43FD10780E00807B1F778D6D5
:1002500083C7D6CEDC01ED91FC910190F081E02DB9
:10026000199481E008950895CF93DF9300D0CDB71E
:10027000DEB7AB01DC01ED91FC910680F781E02D4A
:1002800019821A821B8220E0BE016F5F7F4F199591
:100290000F900F900F90DF91CF9108956D9A20E20B
:1002A000FC0122832EE230E03483238308958EB94B
:1002B00000C000C0001447FF6EB900C000C00014A9
:1002C0006EB900C000C0001408958EB900C000C00F
:1002D000001445FF6EB900C000C000146EB900C024
:1002E00000C0001408958EB900C000C0001447FF7C
:1002F0006EB900C000C000146EB900C008958EB978
:1003000000C000C0001447FF6EB900C000C0001458
:100310006EB900C000C008958EB900C000C00014BE
:1003200046FF6EB900C000C000146EB908958EB9C2
:1003300000C000C0001445FF6EB900C000C000142A
:100340006EB908950F931F93CF93DF9368EB7BE013
:1003500080E090E0F2D4C0911802D091190280910F
:100360002302811111C010921F02109220021092DC
:100370002102109222028AE092E090931B02809365
:100380001A0281E08093230200E010E02CE330E0C9
:100390004BE252E06AE172E0CE0103D3CE5BDF4F65
:1003A00084E68883DF91CF911F910F910895EF929A
:1003B000FF920F931F93CF93DF9300D0CDB7DEB79B
:1003C00000E010E0A0E6FA2E809104029091050270
:1003D0000817190764F52FEF30E040E050E06DE7B3
:1003E00070E080E090E0D9D5E62E2FEF30E040E0DD
:1003F00050E06DE770E080E090E0CFD5F9826A834D
:10040000EB822CE330E040E050E060E070E0CB01B4
:10041000C4D59B01220F331F260F371F255D3D4F8B
:10042000B901CE01019679D30F5F1F4FCDCF86E181
:100430005ED5019729F088E15AD50197B1F53AC008
:1004400000E010E08091040290910502081719075E
:1004500094F72FEF30E040E050E06DE770E080E08F
:1004600090E09BD5F62E2FEF30E040E050E06DE7B6
:1004700070E080E090E091D519826A83FB822CE3E2
:1004800030E040E050E060E070E0CB0186D59B01B9
:10049000220F331F260F371F255D3D4FB901CE01B7
:1004A00001963BD30F5F1F4FCDCF8AE120D5019737
:1004B000C1F543C000E010E050E6F52E8091040243
:1004C000909105020817190784F72FEF30E040E0FC
:1004D00050E06DE770E080E090E05FD5E62E2FEF12
:1004E00030E040E050E06DE770E080E090E055D50E
:1004F000F9826A83EB822CE330E040E050E060E078
:1005000070E0CB014AD59B01220F331F260F371F06
:10051000255D3D4FB901CE010196FFD20F5F1F4F00
:10052000CDCF8091180290911902FC01EE5BFF4F34
:10053000608184D280E090E037C000E010E090EA73
:10054000F92E8091040290910502081719074CF7C3
:100550002FEF30E040E050E06DE770E080E090E0A9
:100560001CD5E62E2FEF30E040E050E06DE770E064
:1005700080E090E012D5F9826A83EB822CE330E0D0
:1005800040E050E060E070E0CB0107D59B01220F16
:10059000331F260F371F255D3D4FB901CE01019650
:1005A000BCD20F5F1F4FCDCFFC01E55DFD4F108228
:1005B000118212820396843B9105B1F768EB7BE0D0
:1005C00080E090E0BAD30F900F900F90DF91CF9121
:1005D0001F910F91FF90EF9008950F931F93CF936A
:1005E000DF93EC0187D3088119812A813B81601B4D
:1005F000710B820B930B623371058105910594F3A6
:10060000DF91CF911F910F9108958F929F92AF929A
:10061000BF92CF92DF92EF92FF920F931F93CF93EF
:10062000DF93862EEA018C01000F111F080F191F9E
:10063000040F151FCEB02C2D2062C22EDEB03D2D32
:100640003F7DD32E3EB9B8802B2D362F239F212DF1
:10065000B22E7A01E016F10608F05DC0B5E0AB2ECF
:100660004B2D6D2D8C2D3FDEBB0CAA94C9F70014C9
:100670004B2D6D2D8C2D1BDE00144B2D6D2D8C2DD7
:100680004BDE99800014292D382D239F212D922E89
:100690004B2D6D2D8C2D19DE95E0B92E492D6D2D2C
:1006A0008C2D21DE990CBA94C9F70014492D6D2DBB
:1006B0008C2DFDDD0014492D6D2D8C2D2DDEAA8095
:1006C00000142A2D382D239F212DA22E492D6D2D6A
:1006D0008C2DFBDD85E0B82E4A2D6D2D8C2D03DE93
:1006E000AA0CBA94C9F700144A2D6D2D8C2D07DE83
:1006F00083E0E80EF11C4A2D6D2D8C2D0DDEB880A7
:1007000000142B2D382D239F212DB22E4A2D6D2D17
:100710008C2D0DDE9FCF1124DF91CF911F910F9172
:10072000FF90EF90DF90CF90BF90AF909F908F9011
:100730000895AF92BF92CF92DF92EF92FF920F9304
:100740001F93CF93DF931F92CDB7DEB75C017B0180
:100750008A010596298341DFF894A7012981622F38
:10076000C80153DFC0902303D0902403E0902503F9
:10077000F090260328EC31E0D8014DD420E130E0A0
:1007800040E050E026D4CA01B90128EE33E040E051
:1007900050E01FD42C0D3D1D4E1D5F1D20932303E3
:1007A0003093240340932503509326037894A2D2D8
:1007B000F50165837683878390870F90DF91CF91D2
:1007C0001F910F91FF90EF90DF90CF90BF90AF906F
:1007D0000895AF92BF92CF92DF92EF92FF920F9364
:1007E0001F93CF93DF93A62EEA018C01000F111FF8
:1007F000080F191F040F151FEEB02E2D2062E22ED8
:10080000FEB03F2D3F7DF32E3EB9D8802D2D3A2DE1
:10081000239F212DD22EC017D10708F058C035E0F4
:10082000C32E4D2D6F2D8E2D5EDDDD0CCA94C9F7C4
:1008300000144D2D6F2D8E2D3ADD00144D2D6F2D92
:100840008E2D6ADDB9802B2D3A2D239F212DB22EBE
:100850004D2D6F2D8E2D39DD55E0D52E4B2D6F2D65
:100860008E2D41DDBB0CDA94C9F700144B2D6F2D92
:100870008E2D1DDD00144B2D6F2D8E2D4DDDCA806C
:100880002C2D3A2D239F212DC22E4B2D6F2D8E2DD9
:100890001CDD45E0D42E4C2D6F2D8E2D24DDCC0C8F
:1008A000DA94C9F700144C2D6F2D8E2D28DD239678
:1008B0004C2D6F2D8E2D30DDD8802D2D3A2D239F80
:1008C000212DD22E4C2D6F2D8E2D31DDA4CF112454
:1008D000DF91CF911F910F91FF90EF90DF90CF901C
:1008E000BF90AF900895AF92BF92CF92DF92EF92F8
:1008F000FF920F931F93CF93DF931F92CDB7DEB775
:100900005C017B018A010596298367DEF894A701C3
:100910002981622FC8015DDFC0902303D09024039A
:10092000E0902503F090260328EC31E0D80173D342
:1009300020E130E040E050E04CD3CA01B90128EE9C
:1009400033E040E050E045D32C0D3D1D4E1D5F1DB2
:1009500020932303309324034093250350932603CD
:100960007894C8D1F50165837683878390870F904B
:10097000DF91CF911F910F91FF90EF90DF90CF907B
:10098000BF90AF900895FC01E05CFF4F28E030E09D
:100990003183208332962FEF208340E450E060E0E3
:1009A00054C1CF92DF92EF92FF920F931F93CF9398
:1009B000DF936C01EB01101611061CF0890120E099
:1009C00030E0F601E05CFF4FE080F180B601E0E04E
:1009D000F0E0EE15FF055CF4685F7F4FCB010897F0
:1009E000DC018D919C91009729F03196F2CF80E047
:1009F00090E01BC0EF3FBFEFFB07B9F083E0EE0FC5
:100A0000FF1F8A95E1F7EC0DFD1DD183C083538351
:100A100042832683378315830483E881F98101901B
:100A2000F081E02DCE011995CE01DF91CF911F917C
:100A30000F91FF90EF90DF90CF900895DF92EF92AB
:100A4000FF920F931F93CF93DF93D62EEC0100E01C
:100A500010E07C0180E4E80EF11CF70180819181B7
:100A600008171907FCF4888199810097D9F0DC01F7
:100A70002D913C914C815D81AE81BF81FD01EE0FD6
:100A8000FF1FEA0FFB1F6A817B816E0F7F1FD90159
:100A90001896ED91FC9119972D2D19950F5F1F4F09
:100AA0002896DBCFDF91CF911F910F91FF90EF90B0
:100AB000DF9008958FED92E066CF21E0611101C0D3
:100AC00020E0382F332319F0369F312D320F832F3A
:100AD0000895DF92EF92FF920F931F93CF93DF93CE
:100AE0007C018B01EA01D22E622FFC018081E5DFBF
:100AF000F70180836D2DF8018081DFDFF8018083AD
:100B00006D2D8881DADF88831124DF91CF911F91C9
:100B10000F91FF90EF90DF900895EF92FF920F9367
:100B20001F93CF93DF9300D0CDB7DEB7FC018B01CD
:100B30005081E180F280352F3F71330F330F330F37
:100B400025E5329F312D1124452F4074952F907249
:100B500057FD1FC041110CC0911104C0832F809517
:100B60008B830EC08BEA8B833B5A3A83198231C048
:100B7000911109C0232F220F8BEA821B8B833555DD
:100B80003A83198226C01B8280E0832F80958A8356
:100B90000EC041110EC0911107C01B82330F8BEAAA
:100BA000831B8A833B5A03C03B831A823095398367
:100BB00010C0911106C085E5830F8B831A828BEAE2
:100BC00006C08BEA830F8B831A8280E085E5831B46
:100BD00089838FEFE816C1F02E2DAE014F5F5F4F76
:100BE000BE016E5F7F4FCE01039673DF2E2D2095E1
:100BF000229F212D11248B81820F8B838A81820F6A
:100C00008A838981820F8983EFEFFE1669F06F2D49
:100C10008F2D53DF282FAE014F5F5F4FBE016E5FF8
:100C20007F4FCE01039655DF8B81F80180838A8147
:100C30008183898182830F900F900F90DF91CF91F4
:100C40001F910F91FF90EF900895DC0140FF03C0CA
:100C500001C06D936D934250E0F75040D0F7089576
:100C60001F920F920FB60F9211242F933F938F93E1
:100C70009F93AF93BF938091230390912403A091FE
:100C80002503B09126033091220323E0230F2D3753
:100C900020F40196A11DB11D05C026E8230F029680
:100CA000A11DB11D2093220380932303909324035D
:100CB000A0932503B09326038091270390912803E6
:100CC000A0912903B0912A030196A11DB11D809323
:100CD000270390932803A0932903B0932A03BF917D
:100CE000AF919F918F913F912F910F900FBE0F90D9
:100CF0001F9018953FB7F89480912703909128038F
:100D0000A0912903B0912A0326B5A89B05C02F3FC7
:100D100019F00196A11DB11D3FBF6627782F892FBD
:100D20009A2F620F711D811D911D42E0660F771F82
:100D3000881F991F4A95D1F70895CF92DF92EF92BD
:100D4000FF92CF93DF936B017C01D4DFEB01C114E1
:100D5000D104E104F10479F03BD1CCDF6C1B7D0BB5
:100D6000683E7340A0F381E0C81AD108E108F10899
:100D7000C851DC4FECCFDF91CF91FF90EF90DF9027
:100D8000CF900895789484B5826084BD84B58160E5
:100D900084BD85B5826085BD85B5816085BDEEE683
:100DA000F0E0808181608083E1E8F0E01082808162
:100DB00082608083808181608083E0E8F0E08081D0
:100DC00081608083E1EBF0E0808184608083E0EBF0
:100DD000F0E0808181608083E1E9F0E080818260E1
:100DE0008083808181608083E0E9F0E080818160A0
:100DF0008083E1EAF0E0808182608083808181608D
:100E00008083E0EAF0E0808181608083E1E2F1E0CC
:100E1000808182608083808181608083E0E2F1E074
:100E2000808181608083EAE7F0E080818460808354
:100E300080818260808380818160808380818068FE
:100E400080831092C100089590E0FC013197E23157
:100E5000F10508F04BC0EE58FF4FD7C080918000DD
:100E60008F7703C0809180008F7D809380000895EC
:100E700080918000877FF9CF84B58F7702C084B5D9
:100E80008F7D84BD08958091B0008F7703C08091DD
:100E9000B0008F7D8093B0000895809190008F778F
:100EA00007C0809190008F7D03C080919000877F64
:100EB0008093900008958091A0008F7707C0809163
:100EC000A0008F7D03C08091A000877F8093A00049
:100ED0000895809120018F7707C0809120018F7D38
:100EE00003C080912001877F809320010895CF93D4
:100EF000DF93282F30E0F901E85FFE4F8491F9017C
:100F0000E25BFE4FD491F901EC56FE4FC491CC2325
:100F100089F0811199DFEC2FF0E0EE0FFF1FE65210
:100F2000FE4FA591B4912C912D2381E090E021F406
:100F300080E002C080E090E0DF91CF9108950895B5
:100F400021DFFDDFFFD9C0E0D0E031DA2097E9F3FF
:100F50000E940000FACFCF93DF9300D01F92CDB74D
:100F6000DEB79B01AC01611571058105910559F052
:100F700069833A834B835C83DDD029813A814B813D
:100F80005C8127D003C060E070E0CB010F900F9030
:100F90000F900F90DF91CF910895CF92DF92EF9253
:100FA000FF926B017C0162177307840795075CF45D
:100FB000CA01B9016C197D098E099F09CCDF6C0D3E
:100FC0007D1D8E1D9F1DFF90EF90DF90CF900895A7
:100FD0000895052E97FB16F400940FD057FD05D009
:100FE0002ED007FC02D046F408C0509540953095AD
:100FF00021953F4F4F4F5F4F089590958095709585
:1010000061957F4F8F4F9F4F0895EE0FFF1F059003
:10101000F491E02D199435D0B7FF0895821B930BFE
:1010200008952FD0A59F900DB49F900DA49F800D83
:10103000911D112408950790F691E02D1994A1E2D5
:101040001A2EAA1BBB1BFD010DC0AA1FBB1FEE1F42
:10105000FF1FA217B307E407F50720F0A21BB30B8D
:10106000E40BF50B661F771F881F991F1A9469F709
:1010700060957095809590959B01AC01BD01CF0165
:101080000895A29FB001B39FC001A39F700D811D61
:101090001124911DB29F700D811D1124911D089581
:1010A0008F929F92AF92BF92CF92DF92EF92FF9278
:1010B000CF93DF93EC01688179818A819B816115EF
:1010C00071058105910521F464E279ED8BE597E0E6
:1010D0002DE133EF41E050E07CDF49015A019B01F3
:1010E000AC01A7EAB1E49DDF6B017C01ACEEB4EF8B
:1010F000A50194012DD0C60ED71EE81EF91EF7FEDD
:1011000006C081E0C81AD108E10880E8F80AC88260
:10111000D982EA82FB82C701B6019F77DF91CF9126
:10112000FF90EF90DF90CF90BF90AF909F908F9007
:101130000895B6CF80E092E0B3CF60930002709341
:10114000010280930202909303020895B7FF69CFD2
:0C11500068DF821B930B0895F894FFCF1A
:10115C00010000000800000000004E012A013401CB
:0A116C009903730431013301DF021F
:00000001FF
